:020000040800F2
:10000000FCFF0020C5190000BD190000BD1900004B
:10001000BD190000BD190000BD190000BD19000088
:10002000BD190000BD190000BD190000BD19000078
:10003000BD190000BD190000BD190000BD19000068
:10004000BD190000BD190000BD190000BD19000058
:10005000BD190000BD190000BD190000BD19000048
:10006000BD190000BD190000BD190000BD19000038
:10007000BD190000BD190000BD190000BD19000028
:10008000BD190000BD190000BD190000BD19000018
:10009000BD190000BD190000BD190000BD19000008
:1000A000BD190000BD190000BD190000BD190000F8
:1000B000BD190000BD190000BD190000BD190000E8
:1000C000BD190000BD190000BD190000BD190000D8
:1000D000BD190000BD190000BD190000BD190000C8
:1000E000BD190000BD190000BD190000BD190000B8
:1000F000BD190000BD190000BD190000BD190000A8
:10010000BD190000BD190000BD190000BD19000097
:10011000BD190000BD190000BD190000BD19000087
:10012000BD190000BD190000BD190000BD19000077
:10013000BD190000BD190000BD190000BD19000067
:10014000BD190000BD190000BD190000BD19000057
:1001500001480068704700BFB400002081B0194911
:1001600000EA0101084600220EE0042022E00820F7
:1001700020E010201EE020201CE040201AE080201B
:1001800018E040F2001015E00F498842EDD00F4909
:100190008842ECD00E498842EBD00E498842EAD022
:1001A0000D498842E9D00D498842E8D00C4988427F
:1001B000E7D010460B49096841EA000209490A6084
:1001C00001B0704700FCFFFF00080140000C014037
:1001D000001001400014014000180140001C0140C3
:1001E000002001401810024083B0CDF800E000F07C
:1001F000FF031A09104603F00F02134614E0194AD0
:1002000002921FE0184A02921CE0184A029219E07A
:10021000174A029216E0174A029213E0164A029217
:1002200010E0164A02920DE00028E8D00128E9D03B
:100230000228EAD00328EBD00428ECD00528EDD022
:100240000628EED0012212B29A40ADF8042002989E
:100250000A46BDF8041000F043FADDF800E003B0F0
:10026000704700BF00080140000C01400010014031
:100270000014014000180140001C01400020014012
:1002800082B0CDF800E0034619460191FFF760FF08
:1002900040F2E83100FB01F201990A601F49097838
:1002A000C1F30311C8B21E4909180878C0B21A1D5B
:1002B0001968C140116019490988C1F3022188B247
:1002C000174909180878C0B203F20802191D096815
:1002D000C140116011490988C1F3C22188B2104997
:1002E00009180878C0B203F20C02191D0968C14050
:1002F00011600A490988C1F3813188B20949091896
:100300000978C8B203F2100203F20C010968B1FBCC
:10031000F0F11160DDF800E002B070470410024017
:100320009D1D0000C416000081B0CDF800E0012240
:1003300052B23E490A6000F268010B686FF000613A
:1003400003EA0102144603F00061C90E0B4602F0F5
:100350000041B1F1004F02D135490A6801E0354949
:100360000A6804F47021090C0E464FF6FF7104EA86
:1003700001010D4604F44011B1F5401F0DD16FF09D
:10038000706102EA01010E462A490A686FF0706145
:100390000A4028490A60324616E004F48011B1F59B
:1003A000801F09D14FF00301B140C94302EA0101A6
:1003B00041F070610A4607E0610D090105FA01F19B
:1003C000C9430A4042F070622BB1610D090105FA80
:1003D00001F10A43FFE704F00041B1F1004F02D1FF
:1003E00013490A6001E013490A6040F2000A81469D
:1003F0004FEA8A0109EB01010968B1F1FF3F10D012
:1004000009F134014FEA8A03C91809680A4609EB61
:100410000301096808461146FFF7E6FE0AF1010AE2
:10042000E6E7DDF800E001B0704700BF000342429C
:100430001C0001400400014081B0ADF800100146ED
:10044000BDF800000B68C3F3C01202B9FAE70A1D39
:10045000106001B07047FFFF81B000230360CB0044
:100460009BB242EA030304689BB244EA03030360BD
:10047000051D13141C462B6864F382032B6000F2E5
:100480001C0500242B6864F3CB232B600124036834
:1004900064F38613036001B07047FFFF89B0CDF8A5
:1004A00000E0834698B28C46BDF824100A9E04AC46
:1004B000ADF80410ADF808002046FFF7E1FEBDF8E6
:1004C0000800BDF80410644CA34512D101256DB29B
:1004D000624C2560624D634C2560634D634C256022
:1004E000634D644C2560644D644C2560079C039407
:1004F00056E0634CA34512D101256DB2614C2560D5
:10050000614D584C2560614D584C2560604D594CEB
:100510002560604D594C2560069C039440E05E4C7C
:10052000A34512D101256DB25C4C25605C4D4D4C4C
:1005300025605C4D4D4C25605B4D4E4C25605B4D00
:100540004E4C2560069C03942AE0594CA34512D1D9
:1005500001256DB2574C2560574D424C2560574DD3
:10056000424C2560564D434C2560564D434C25600A
:10057000069C039414E0544CA34511D101256DB29F
:10058000524C2560524D374C2560524D374C2560FA
:10059000514D384C2560514D384C2560069C0394D4
:1005A000ADF80410ADF808003046FFF7BDFEBDF809
:1005B0000800BDF804100BF1100500242C600BF1AD
:1005C00010052C680C432C600BF10C0500242C60EA
:1005D00018B140F4806080B2FFE70BF10C052C6885
:1005E00004432C600BF10C060125346865F34D348F
:1005F00034600BF10C060125346865F3C3043460E4
:100600000BF10C060125346865F3820434600BF1AC
:10061000140500242C60039D192465434FEA8C04C3
:10062000B5FBF4F76424B7FBF4F426013509642420
:100630006C433C1B240104F232056424B5FBF4F442
:1006400004F00F0446EA04040BF10805A4B22C6080
:10065000DDF800E009B0704700380140380342423D
:1006600075090000C0000020FFFFFFFFC40000204C
:10067000FFFFFFFFC8000020FFFFFFFFCC000020AE
:1006800000440040C4034242D5090000FFFFFFFFC1
:10069000FFFFFFFFFFFFFFFF00480040C80342428B
:1006A00015090000FFFFFFFFFFFFFFFFFFFFFFFF38
:1006B000004C0040CC034242110B0000FFFFFFFF43
:1006C000FFFFFFFFFFFFFFFF00500040D00342424B
:1006D000F50A0000FFFFFFFFFFFFFFFFFFFFFFFF27
:1006E00081B0CDF800E08CB21546774B00EA0303E9
:1006F0001E461846FFF732FDB4F1FF0F0CD1734BC5
:100700009D4203D14FF033333360D9E0422D03D102
:100710004FF044333360D3E04FF6FF739C4214D163
:100720006A4B9D4207D14FF033333360341D4FF095
:1007300033332360C4E0422D07D14FF0443333609C
:10074000341D4FF044332360BAE00021002005F04F
:1007500001030BB100211DE005F0020333B105F4E4
:10076000C0730BB1082100E0042113E005F004037D
:1007700033B105F020030BB1042100E0002109E0B2
:1007800005F0080333B105F020030BB10C2100E0A4
:100790000821FFE74E4B05EA03030BB1032009E0F4
:1007A00005F400730BB1022004E005F480630BB183
:1007B0000120FFE705F00C030BB10143FFE704F054
:1007C000FF039BB2002B3BD0376800201FFA84F850
:1007D00032462E4608282CD24FF0010303FA00F4CB
:1007E00008EA0403A34222D185004FF00F03AB4077
:1007F000DB4307EA030401FA05F344EA03031D4659
:1008000006F48173B3F5817F05D102F214044FF031
:1008100001038340236006F08203822B05D102F29C
:1008200010044FF00103834023602F46FFE7401C74
:10083000D0E717601FFA88F00F463146164602E0EF
:100840000F462946A0B2B0F1FF0F39D9331DD3F8B6
:1008500000800022082A30D202F208044FF001037F
:1008600003FA04F400EA0403A34224D195004FF0F4
:100870000F03AB40DB4308EA030807FA05F348EA35
:10088000030801F48173B3F5817F07D106F21405E3
:1008900002F208044FF00103A3402B6001F0820331
:1008A000822B07D106F2100502F208044FF0010373
:1008B000A3402B60FFE7521CCCE7331DC3F8008038
:1008C000DDF800E001B0704700FCFFFF14000800F5
:1008D0000008080081B000F20C02116000F208026A
:1008E0001368C3F3000202B9F8E700F20C021268C1
:1008F00090B201B07047FFFF81B0CDF800E081B247
:100900000348FFF7E7FFDDF800E001B0704700BFE4
:100910000038004081B0CDF800E081B20348FFF715
:100920008BFDDDF800E001B0704700BF00480040DB
:1009300081B0CDF800E0019D2C4610B408B493B20C
:100940008AB201460348FFF7A9FD02B0DDF800E0D6
:1009500001B070470048004081B0CDF800E081B29E
:100960000348FFF7B7FFDDF800E001B0704700BFB4
:100970000030014081B0CDF800E081B20348FFF7BC
:100980005BFDDDF800E001B0704700BF00380140BA
:1009900081B0CDF800E081B20348FFF79BFFDDF89E
:1009A00000E001B0704700BF003C004081B0CDF8CE
:1009B00000E0019D2C4610B408B493B28AB20146FF
:1009C0000348FFF76BFD02B0DDF800E001B07047AF
:1009D0000038014081B0CDF800E081B20348FFF754
:1009E0002BFDDDF800E001B0704700BF004400407F
:1009F00081B0CDF800E0019D2C4610B408B493B24C
:100A00008AB201460348FFF749FD02B0DDF800E075
:100A100001B070470044004081B0CDF800E081B2E1
:100A20000348FFF757FFDDF800E001B0704700BF53
:100A30000038004081B0CDF800E081B20348FFF7F4
:100A400049FFDDF800E001B0704700BF0030014011
:100A500081B0CDF800E0044A89B2FFF741FEDDF82D
:100A600000E001B0704700BF1400080081B0CDF86D
:100A700000E081B20348FFF72DFFDDF800E001B090
:100A8000704700BF003C004081B0CDF800E04FF05F
:100A9000420289B2FFF724FEDDF800E001B07047A2
:100AA00083B0CDF800E08DF8040002910B4C0C4BA4
:100AB0001C600C4C0C4B1C60012464B20B4B1C6082
:100AC0001046FFF731FC029A9DF804100848FFF722
:100AD000C3FCDDF800E003B0704700BF6D0A000002
:100AE000B800002091090000BC000020BC03424275
:100AF000003C004081B0CDF800E081B20348FFF730
:100B00009BFCDDF800E001B0704700BF00500040E2
:100B100081B0CDF800E081B20348FFF78DFCDDF82D
:100B200000E001B0704700BF004C00400149086080
:100B3000704700BF9881224201490860704700BF9A
:100B4000B081224201490860704700BF988121426C
:100B500001490860704700BF948122420149086042
:100B6000704700BFB001224201490860704700BFD2
:100B7000B881224201490860704700BFA8012242A3
:100B800001490860704700BFAC012242014908607A
:100B9000704700BFB081224201490860704700BF22
:100BA0009C81214281B010B5904208BF2AE040EA02
:100BB00002044FEA4404002C08BF23E0440004D19F
:100BC000944201D4A41C012C1CE04FEA40044FEADB
:100BD0001464FF2C0AD14FEA42044FEA1464FF2C3C
:100BE00004D14FEAD274B4EBD0340BE0002A06D41F
:100BF000002802DC0024012C04E0904202E00028DE
:100C000048BF8242BDE8104001B0704783B0CDF8C4
:100C100000E0ADF808100190BDF80830BDF80820DC
:100C2000521EADF808204BB10020064C2468A047A6
:100C3000019A1070019A521C0192EDE7DDF800E074
:100C400003B07047B000002081B0FAB590EA020608
:100C50004CBF4FF000464FF000064FEA00214FEA2C
:100C600040031B0E12BF41F000414FF000002CE08A
:100C7000FF2B26D04FEA02244FEA42052D0E12BF69
:100C800044F000444FF000001FE0FF2D19D05B1925
:100C9000A1FB0454002C5CBF64005B1E803424BFA5
:100CA0005B1C64087E3BDCBF4FF000000DE0FF2BB7
:100CB00007D24FEA142030F4000040EAC35030431A
:100CC00003E0FF27FF0546EA0700BDE8FA4001B050
:100CD0007047FFFF81B00091014600980B461C460B
:100CE0005A1C15460346421C10461A782270227878
:100CF0000AB12B46F3E7084601B0704781B0FAB558
:100D000090EA02064CBF4FF000464FF00006010289
:100D100043001B0E12BF41F000414FF000003BE0CA
:100D2000FF2B35D05FEA02245FEA42055FEA1565D2
:100D300011BF44F000444FF0FF4030432CE0FF2D42
:100D400026D05B1B0020202764084908A14240EB05
:100D5000000028BF091B7F1E04D0002918BF4900CE
:100D6000F4D1B84010F0004F04BF4000B3F10103CC
:100D700080302CBF5B1C40007F33DCBF4FF0000095
:100D80000AE0FF2B04D2400A40EAC350304303E09C
:100D9000FF27FF0556EA0700BDE8FA4001B070479B
:100DA00000F208010A6804490A6000F21C010A689E
:100DB00002490A60704700BFA4000020A80000207C
:100DC000026803490A60011D0A6802490A60704707
:100DD000AC000020B000002081B0002808BF0FE068
:100DE00002B54FF09E0202D4521E4000FCD5803066
:100DF0002CBF521C4000400A40EAC250BDE80240ED
:100E000001B0704781B0CDF800E00178CCB2A0B25B
:100E1000034C2468A0470020DDF800E001B07047D3
:100E2000A000002081B0CDF800E0094902B440F2F2
:100E3000000340F2000240F20001FFF7D9FD01B0CB
:100E4000044A05490A600020DDF800E001B070475F
:100E5000001C0000D5090000A000002081B0CDF8E2
:100E600000E0094902B440F2000340F2000240F2FF
:100E70000001FFF79BFD01B0044A05490A6000200C
:100E8000DDF800E001B07047941B00007509000018
:100E9000A000002001490860704700BF9001214276
:100EA00001490860704700BFB481224201490860CF
:100EB000704700BF8801224281B0CDF800E00949A7
:100EC00002B440F2000340F2000240F20001FFF7DA
:100ED0008FFD01B0044A05490A600020DDF800E0FA
:100EE00001B07047001C0000D5090000A0000020E0
:100EF00081B0CDF800E0A9E0012905D140F2200140
:100F00006548FFF7C1FD04E040F220016248FFF7A9
:100F10009FFDBBE0012905D140F208015F48FFF7C2
:100F2000B3FD04E040F208015C48FFF791FDADE03D
:100F3000012905D144F200015948FFF7A5FD04E05D
:100F400044F200015648FFF783FD9FE0012905D1D7
:100F500040F200415148FFF797FD04E040F20041A4
:100F60004E48FFF775FD91E0012905D140F60001DB
:100F70004A48FFF789FD04E040F600014748FFF7C3
:100F800067FD83E0012905D141F200014348FFF7E5
:100F90007BFD04E041F200014048FFF759FD75E098
:100FA000012905D141F200013D48FFF76DFD04E044
:100FB00041F200013A48FFF74BFD67E0012905D1F6
:100FC00040F600013648FFF75FFD04E040F60001FF
:100FD0003348FFF73DFD59E0012905D140F24001BA
:100FE0002F48FFF751FD04E040F240012C48FFF785
:100FF0002FFD4BE0012905D140F220012848FFF7E1
:1010000043FD04E040F220012548FFF721FD3DE0CB
:10101000012905D140F240012248FFF735FD04E0E7
:1010200040F240011F48FFF713FD2FE0012905D1D1
:1010300040F280011B48FFF727FD04E040F28001E9
:101040001848FFF705FD21E0012020E000283FF4CB
:1010500053AF01283FF45EAF02283FF469AF032885
:101060003FF474AF04283FF47FAF05283FF48AAF04
:1010700006283FF495AF0728A0D00828ACD009284F
:10108000B8D00A28C4D00B28D0D0DDE70020DDF886
:1010900000E001B0704700BF0008014000100140AF
:1010A00000140140000C014081B0CDF800E0A9E03F
:1010B000012905D140F210016548FFF7E5FC04E085
:1010C00040F210016248FFF7C3FCBBE0012905D1E3
:1010D00040F204015F48FFF7D7FC04E040F204014E
:1010E0005C48FFF7B5FCADE0012905D142F20001F3
:1010F0005948FFF7C9FC04E042F200015648FFF7E7
:10110000A7FC9FE0012905D140F200415148FFF7BB
:10111000BBFC04E040F200414E48FFF799FC91E02F
:10112000012905D140F600014A48FFF7ADFC04E073
:1011300040F600014748FFF78BFC83E0012905D109
:1011400041F200014348FFF79FFC04E041F2000137
:101150004048FFF77DFC75E0012905D140F201010F
:101160003B48FFF791FC04E040F201013848FFF7EB
:101170006FFC67E0012905D140F200413648FFF7D6
:1011800083FC04E040F200413348FFF761FC59E082
:10119000012905D140F200212F48FFF775FC04E03A
:1011A00040F200212C48FFF753FC4BE0012905D108
:1011B00040F200112848FFF767FC04E040F20011FC
:1011C0002548FFF745FC3DE0012905D140F24001EB
:1011D0002248FFF759FC04E040F240011F48FFF7A6
:1011E00037FC2FE0012905D140F280011B48FFF7B1
:1011F0004BFC04E040F280011848FFF729FC21E095
:10120000012020E000283FF453AF01283FF45EAFF7
:1012100002283FF469AF03283FF474AF04283FF479
:101220007FAF05283FF48AAF06283FF495AF072823
:10123000A0D00828ACD00928B8D00A28C4D00B28E0
:10124000D0D0DDE70020DDF800E001B0704700BF3E
:10125000000801400010014000140140000C014052
:1012600081B0CDF800E0011D0A680168C8B21146DE
:10127000034AFFF715FC0020DDF800E001B07047DD
:101280006C1C000081B0CDF800E0094902B440F2C6
:10129000000340F2000240F20001FFF749FB01B0F9
:1012A000044A05490A600020DDF800E001B07047FB
:1012B000281B000015090000A000002081B0CDF817
:1012C00000E0011D0A680168C8B21146034AFFF731
:1012D000E7FB0020DDF800E001B070476C1C000067
:1012E00001490860704700BFA0812242014908609F
:1012F000704700BFA481224201490860704700BFC7
:10130000A881224201490860704700BF98812142AC
:1013100001490860704700BF8C0122420149086002
:10132000704700BF9401214201490860704700BF27
:101330009C81214201490860704700BF8001214221
:1013400001490860704700BFA801224201490860B6
:10135000704700BFB001224201490860704700BFDA
:10136000AC01224283B0CDF800E0024610460D22C7
:101370008DF808200A228DF809201FE0FFF742FDB2
:1013800023E002782AB10190FFF73CFD0198401C50
:10139000F7E71AE002782AB10190FFF733FD0198D0
:1013A000401CF7E702AA1046FFF72CFD0DF10902D9
:1013B0001046FFF727FD08E0062007E00029DDD0F2
:1013C0000129DED00229E5D0F6E70020DDF800E0B3
:1013D00003B0704782B0CDF800E002460C46002012
:1013E000002149B20192019AB2F1FF3F06D1714A40
:1013F00011462046FFF76EFC0320D7E0012501AA25
:10140000D21C127802F08002D2B272B101AAD31CAF
:101410001A7882F080021A706A1CD3B22D222270D0
:10142000621C1446DEB2A24601E0A246EEB2019A68
:1014300032B9614A11465046FFF74CFC0020B5E036
:10144000019AB2F1FF4F06D15C4A11465046FFF7B0
:1014500041FCF0B2AAE05FFA80F94FFA81F8019AF4
:101460004FF07E50FFF79EFB40F2000000DD0120B0
:1014700048B1019A5248FFF7E7FB0190A8F1010833
:101480004FFA88F8EBE7019A4D48FFF78BFB40F2E3
:10149000000000DC012048B1019A4A48FFF7D4FB64
:1014A000019008F101084FFA88F8ECE7019A520020
:1014B000019201AAD21C12787F3AD0B201AAD31CA1
:1014C00001221A70019A8240019201AAD21C12785C
:1014D00030328AF800200AF10100B8F1010F06DB72
:1014E000B8F1060F03DC05465FFA89F103E02E220E
:1014F0000270451C012106204FFA88F400B301AAAE
:10150000D31C00221A70019A9300019AD2180192FA
:10151000019A5200019201AAD21C127830322A702C
:101520006D1C51B9621E52B253B222B92E222A70DA
:101530006D1C0121FFE75CB2FFE7401EC0B2DDE792
:10154000294660B24A1E1278302A01D1491EF9E7B5
:101550004A1E12782E2A01D1491EFFE710B36522D8
:101560000A70491C002806DA2D220A70491C4242E2
:1015700050B243B200E043B2D8B2DAB2092A07D976
:101580000A22B0FBF2F2D2B230320A70491CFFE7F5
:101590000A23B0FBF3F203FB1202D2B230320A701C
:1015A000481C00E00846002202700020DDF800E040
:1015B00002B070475C000020600000206200002044
:1015C00000002041CDCCCC3D41F6FF27C0F2B7074B
:1015D0007F1EFDD100BF00BF00BF00BF00BF70472E
:1015E00081B0CDF800E0B0F5805F0CD2B0F5487F57
:1015F00009D9FFF7F1FB074AFFF780FB064AFFF71F
:1016000023FB004601E04FF00000DDF800E001B0F0
:10161000704700BF00F07F450000A04181B0CDF8C9
:1016200000E05FFA81F95FFA82FA0FE05FFA8AF16F
:101630005FFA89F0FFF738FD0DE05FFA8AF15FFA93
:1016400089F0FFF755FC06E0012004E00028EDD00A
:101650000128F2D0F8E7DDF800E001B07047FFFFA5
:1016600081B0CDF800E08B4609E05846FFF7F8FD61
:101670000AE05846FFF722FE06E0012004E00028B9
:10168000F3D00128F5D0F8E7DDF800E001B07047AD
:1016900081B0CDF800E003460846FFF791FB1846FD
:1016A000FFF77EFB0120054C2468A0470020044C76
:1016B0002468A047DDF800E001B07047A8000020D2
:1016C000A40000200204060844F67F77C0F2120747
:1016D0007F1EFDD100BF00BF00BF00BF00BF70472D
:1016E00081B0CDF800E011E00846FFF7CBFD16E031
:1016F0000846FFF7E1FB12E00846FFF7AFFB0EE0FC
:101700000846FFF78FFB0AE0012008E00028EBD035
:101710000128EDD02028EFD03028F1D0F4E7DDF813
:1017200000E001B07047FFFF84B0CDF800E000207A
:10173000019040F6FF70ADF80A000020ADF80C00F3
:1017400000208DF808009DF808000A2830D20020FB
:101750001E4C2468A0470DF10E000221FFF756FA37
:1017600001201A4C2468A0470DF10E02107800F0F9
:101770001F00C0B2C10189B2501C00784008C0B23D
:10178000014389B28AB2019840180190BDF80A005D
:10179000884201D9ADF80A20BDF80C00904201D270
:1017A000ADF80C209DF80800401C8DF80800CAE731
:1017B000BDF80C100198411ABDF80A00081AC008BB
:1017C00080B2DDF800E004B0704700BFA400002044
:1017D00081B01CF8019B0BF8019BBBEB0A0FF8D101
:1017E00001B0704781B01548006840F0010113480E
:1017F0000160134913480160104801681248014014
:101800000E4801600D4801686FF4802001400B48CC
:1018100001600C4801686FF4FE0001400948016056
:10182000064801686FF0A0500140044801604FF085
:1018300000010648016001B0704700BF001002407F
:101840000000FFF004100240FFFFF6FE2C100240E3
:1018500081B0CDF800E009490948FFF719FF0948B0
:101860000221FFF77FFD08480221FFF77BFDFFF70C
:101870002BFFDDF800E001B0704700BFB81D00008D
:10188000D81C0000000000201400002081B0CDF81A
:1018900000E0002207210020FFF7C0FE0022012106
:1018A0000020FFF7BBFE084801460020FFF7D8FEE6
:1018B00042F280510120FFF713FFFFF705FFDDF82B
:1018C00000E001B0704700BFB01D000081B0CDF84E
:1018D00000E0FFF729FF1D490880FFF781FE1C4942
:1018E00008601C48018819480088411A89B21A48C2
:1018F0000088814224D91548018816480088411A79
:1019000089B21548008881421AD914480121FFF78D
:1019100029FD0F4800681249FFF75CFD01211048BE
:10192000FFF720FD0F480221FFF71CFD0E480221A2
:10193000FFF718FD0548018806480180FFF7C4FE3F
:10194000FFF742FEDDF800E001B0704766000020BE
:10195000680000202E00002030000020320000200F
:101960006C0000203F0000204300002081B04FF0B9
:1019700000094FF0000CBDEB0A0F04DCBDEB0B0FB0
:1019800001DBD446EA464BF8049BBBEB0A0FFAD1C5
:10199000BCEB0A0F05DDE246D9F800B00BF1040BF1
:1019A000F1E701B07047FFFF81B0024902480160D2
:1019B00001B0704740190100B400002081B0FEE77B
:1019C00001B0704700F00EF800F048FAFFF7ECFFA6
:1019D00000F0F6F9FFF75AFFFFF73AFFFFF776FF3F
:1019E000FCE7FEE781B0CDF800E0464A464B474CA5
:1019F00047494BF68030814206D94648006840F09E
:101A000002014448016011E045F6C050814206D908
:101A10004048006840F001013E48016006E03D4852
:101A200001686FF0070001403A480160FFF7DAFEF5
:101A30003948036039480460394802EA00013948EE
:101A4000016002F0010040B119463648006800F01C
:101A50000200002800D1F8E700E0194602F48030C7
:101A600040B10B462F48006800F40030002800D138
:101A7000F8E700E00B4602F0805068B129480068A2
:101A800040F08051274801602648006800F000506F
:101A9000002800D1F8E7FFE702F0806078B1214824
:101AA000006840F080611F48016011461A461D48D9
:101AB000006800F00060002800D1F8E701E011465E
:101AC0001A4601F0807070B11648006840F08071CD
:101AD0001448016011461348006800F0007000B916
:101AE000F9E70A46FFE70C48006800F00C01900097
:101AF00000F00C00814200D0F5E7DDF800E001B015
:101B0000704700BF8100010502841D0044060100EA
:101B10004019010000200240041002402C10024035
:101B2000FFFF0F00001002403800000039000000E5
:101B3000FFFFFFFF000000000000000000000000A9
:101B40000000000000000000000000000000000095
:101B50000000000000000000000000001808000065
:101B6000180000000000000000000000000000005D
:101B70000000000000000000000000000000000065
:101B80000000000000000000000000000000000055
:101B900030001408090000000A000000FFFFFFFFEA
:101BA0000000000000000000000000000000000035
:101BB0000000000000000000000000000000000025
:101BC00000000000000000001808000018000000DD
:101BD0000000000000000000000000000000000005
:101BE00000000000000000000000000000000000F5
:101BF00000000000000000000000000004000000E1
:101C00003500000036000000FFFFFFFF000000006D
:101C100000000000000000000000000000000000C4
:101C200000000000000000000000000000000000B4
:101C3000000000001808000018000000000000006C
:101C40000000000000000000000000000000000094
:101C50000000000000000000000000000000000084
:101C60000000000000000000080000082A0000003A
:101C70002B0000002C000000FFFFFFFF0000000011
:101C80000000000000000000000000000000000054
:101C90000000000000000000000000000000000044
:101CA00018080000180800001808000000000000D4
:101CB0000000000000000000000000000000000024
:101CC0000000000000000000000000000000000014
:101CD0000000000000112008950E0000AD0E00006D
:101CE000A10E000041130000591300004D13000025
:101CF00035130000F9120000ED120000E11200009F
:101D00000513000029130000FFFFFFFFFFFFFFFF87
:101D1000FFFFFFFFFFFFFFFFFFFFFFFFFFFFFFFFD3
:101D2000FFFFFFFFFFFFFFFFFFFFFFFFFFFFFFFFC3
:101D3000FFFFFFFFFFFFFFFF00000A0020496E705A
:101D40007574204144433A2000206D41002D2D2D13
:101D50002D2D2D2D2D2D2D2D2D2D2D2D2D2D2D2DB3
:101D60002D2D2D2D2D004E614E003000494E460088
:101D70002020202020342D32306D41205220436C11
:101D800069636B002D2D2D2D2D2D2D2D2D2D2D2D00
:101D90002D2D2D2D2D2D2D2D2D2D2D2D0000000027
:101DA00000010203040102030406070809FFFFFF04
:101DB0000700000004030000910900006D0A000004
:101DC00000B5DFF824B0DFF824A0DFF824C0FFF767
:101DD000FFFCDFF820B0DFF820A0DFF820C0FFF71D
:101DE000F7FC00BD704700BF000000202D00002060
:101DF000701D00002E00002066000020381D00002D
:101E0000FFFFFFFFFFFFFFFFFFFFFFFFFFFFFFFFE2
:101E1000FFFFFFFFFFFFFFFFFFFFFFFFFFFFFFFFD2
:101E2000FFFFFFFFFFFFFFFFFFFFFFFFFFFFFFFFC2
:101E3000FFFFFFFFFFFFFFFFFFFFFFFFFFFFFFFFB2
:101E4000FFFFFFFFFFFFFFFFFFFFFFFFFFFFFFFFA2
:101E5000FFFFFFFFFFFFFFFFFFFFFFFF00B5DFF802
:101E600010B0DFF810A0FFF781FD00BD704700BF84
:101E700000000020D0000020FFFFFFFFFFFFFFFF5A
:00000001FF
